{
  "contractName": "FlightSuretyApp",
  "abi": [
    {
      "inputs": [
        {
          "internalType": "address payable",
          "name": "_dataContract",
          "type": "address"
        }
      ],
      "payable": false,
      "stateMutability": "nonpayable",
      "type": "constructor"
    },
    {
      "anonymous": false,
      "inputs": [
        {
          "indexed": false,
          "internalType": "address",
          "name": "airline",
          "type": "address"
        },
        {
          "indexed": false,
          "internalType": "string",
          "name": "flight",
          "type": "string"
        },
        {
          "indexed": false,
          "internalType": "uint256",
          "name": "timestamp",
          "type": "uint256"
        },
        {
          "indexed": false,
          "internalType": "uint8",
          "name": "status",
          "type": "uint8"
        }
      ],
      "name": "FlightStatusInfo",
      "type": "event"
    },
    {
      "anonymous": false,
      "inputs": [
        {
          "indexed": false,
          "internalType": "bool",
          "name": "mode",
          "type": "bool"
        }
      ],
      "name": "OperationalStatusChanged",
      "type": "event"
    },
    {
      "anonymous": false,
      "inputs": [
        {
          "indexed": false,
          "internalType": "address",
          "name": "airline",
          "type": "address"
        },
        {
          "indexed": false,
          "internalType": "string",
          "name": "flight",
          "type": "string"
        },
        {
          "indexed": false,
          "internalType": "uint256",
          "name": "timestamp",
          "type": "uint256"
        },
        {
          "indexed": false,
          "internalType": "uint8",
          "name": "status",
          "type": "uint8"
        }
      ],
      "name": "OracleReport",
      "type": "event"
    },
    {
      "anonymous": false,
      "inputs": [
        {
          "indexed": false,
          "internalType": "uint8",
          "name": "index",
          "type": "uint8"
        },
        {
          "indexed": false,
          "internalType": "address",
          "name": "airline",
          "type": "address"
        },
        {
          "indexed": false,
          "internalType": "string",
          "name": "flight",
          "type": "string"
        },
        {
          "indexed": false,
          "internalType": "uint256",
          "name": "timestamp",
          "type": "uint256"
        }
      ],
      "name": "OracleRequest",
      "type": "event"
    },
    {
      "anonymous": false,
      "inputs": [
        {
          "indexed": false,
          "internalType": "address",
          "name": "airline",
          "type": "address"
        },
        {
          "indexed": false,
          "internalType": "uint256",
          "name": "value",
          "type": "uint256"
        }
      ],
      "name": "airlinePaid",
      "type": "event"
    },
    {
      "anonymous": false,
      "inputs": [
        {
          "indexed": false,
          "internalType": "address",
          "name": "airline",
          "type": "address"
        },
        {
          "indexed": false,
          "internalType": "uint256",
          "name": "_regIndex",
          "type": "uint256"
        }
      ],
      "name": "registeredAirline",
      "type": "event"
    },
    {
      "anonymous": false,
      "inputs": [
        {
          "indexed": false,
          "internalType": "address",
          "name": "airline",
          "type": "address"
        },
        {
          "indexed": false,
          "internalType": "bool",
          "name": "isRegistered",
          "type": "bool"
        },
        {
          "indexed": false,
          "internalType": "bytes32",
          "name": "flightKey",
          "type": "bytes32"
        },
        {
          "indexed": false,
          "internalType": "string",
          "name": "flightNumber",
          "type": "string"
        },
        {
          "indexed": false,
          "internalType": "uint8",
          "name": "statusCode",
          "type": "uint8"
        },
        {
          "indexed": false,
          "internalType": "uint256",
          "name": "updatedTimestamp",
          "type": "uint256"
        }
      ],
      "name": "registeredFlight",
      "type": "event"
    },
    {
      "anonymous": false,
      "inputs": [
        {
          "indexed": false,
          "internalType": "address",
          "name": "airline",
          "type": "address"
        },
        {
          "indexed": false,
          "internalType": "uint256",
          "name": "regIndex",
          "type": "uint256"
        },
        {
          "indexed": false,
          "internalType": "bool",
          "name": "executed",
          "type": "bool"
        },
        {
          "indexed": false,
          "internalType": "uint256",
          "name": "numVotes",
          "type": "uint256"
        }
      ],
      "name": "submittedAirline",
      "type": "event"
    },
    {
      "anonymous": false,
      "inputs": [
        {
          "indexed": false,
          "internalType": "address",
          "name": "airline",
          "type": "address"
        },
        {
          "indexed": false,
          "internalType": "uint256",
          "name": "_regIndex",
          "type": "uint256"
        }
      ],
      "name": "votedAirline",
      "type": "event"
    },
    {
      "constant": true,
      "inputs": [],
      "name": "REGISTRATION_FEE",
      "outputs": [
        {
          "internalType": "uint256",
          "name": "",
          "type": "uint256"
        }
      ],
      "payable": false,
      "stateMutability": "view",
      "type": "function"
    },
    {
      "constant": true,
      "inputs": [
        {
          "internalType": "uint256",
          "name": "",
          "type": "uint256"
        }
      ],
      "name": "airlines",
      "outputs": [
        {
          "internalType": "address",
          "name": "airline",
          "type": "address"
        },
        {
          "internalType": "bool",
          "name": "approved",
          "type": "bool"
        },
        {
          "internalType": "uint256",
          "name": "regIndex",
          "type": "uint256"
        },
        {
          "internalType": "uint256",
          "name": "votes",
          "type": "uint256"
        }
      ],
      "payable": false,
      "stateMutability": "view",
      "type": "function"
    },
    {
      "constant": true,
      "inputs": [],
      "name": "operational",
      "outputs": [
        {
          "internalType": "bool",
          "name": "",
          "type": "bool"
        }
      ],
      "payable": false,
      "stateMutability": "view",
      "type": "function"
    },
    {
      "constant": true,
      "inputs": [
        {
          "internalType": "address",
          "name": "",
          "type": "address"
        }
      ],
      "name": "regIndexAirline",
      "outputs": [
        {
          "internalType": "uint256",
          "name": "",
          "type": "uint256"
        }
      ],
      "payable": false,
      "stateMutability": "view",
      "type": "function"
    },
    {
      "constant": true,
      "inputs": [],
      "name": "isOperational",
      "outputs": [
        {
          "internalType": "bool",
          "name": "",
          "type": "bool"
        }
      ],
      "payable": false,
      "stateMutability": "view",
      "type": "function"
    },
    {
      "constant": false,
      "inputs": [
        {
          "internalType": "bool",
          "name": "mode",
          "type": "bool"
        }
      ],
      "name": "setOperatingStatus",
      "outputs": [
        {
          "internalType": "bool",
          "name": "",
          "type": "bool"
        }
      ],
      "payable": false,
      "stateMutability": "nonpayable",
      "type": "function"
    },
    {
      "constant": true,
      "inputs": [],
      "name": "getBalance",
      "outputs": [
        {
          "internalType": "uint256",
          "name": "",
          "type": "uint256"
        }
      ],
      "payable": false,
      "stateMutability": "view",
      "type": "function"
    },
    {
      "constant": false,
      "inputs": [
        {
          "internalType": "address",
          "name": "_airline",
          "type": "address"
        }
      ],
      "name": "submitAirline",
      "outputs": [],
      "payable": true,
      "stateMutability": "payable",
      "type": "function"
    },
    {
      "constant": false,
      "inputs": [
        {
          "internalType": "address",
          "name": "_airline",
          "type": "address"
        }
      ],
      "name": "voteAirline",
      "outputs": [],
      "payable": false,
      "stateMutability": "nonpayable",
      "type": "function"
    },
    {
      "constant": false,
      "inputs": [
        {
          "internalType": "address",
          "name": "_airline",
          "type": "address"
        }
      ],
      "name": "registerAirline",
      "outputs": [],
      "payable": false,
      "stateMutability": "nonpayable",
      "type": "function"
    },
    {
      "constant": false,
      "inputs": [],
      "name": "fundAirline",
      "outputs": [],
      "payable": true,
      "stateMutability": "payable",
      "type": "function"
    },
    {
      "constant": true,
      "inputs": [
        {
          "internalType": "address",
          "name": "_airline",
          "type": "address"
        }
      ],
      "name": "getAirlineStatus",
      "outputs": [
        {
          "internalType": "address",
          "name": "",
          "type": "address"
        },
        {
          "internalType": "bool",
          "name": "",
          "type": "bool"
        },
        {
          "internalType": "uint256",
          "name": "",
          "type": "uint256"
        },
        {
          "internalType": "uint256",
          "name": "",
          "type": "uint256"
        }
      ],
      "payable": false,
      "stateMutability": "view",
      "type": "function"
    },
    {
      "constant": true,
      "inputs": [],
      "name": "getAirlines",
      "outputs": [
        {
          "internalType": "uint256[]",
          "name": "",
          "type": "uint256[]"
        },
        {
          "internalType": "address[]",
          "name": "",
          "type": "address[]"
        }
      ],
      "payable": false,
      "stateMutability": "view",
      "type": "function"
    },
    {
      "constant": false,
      "inputs": [
        {
          "internalType": "uint8",
          "name": "_airlineIndex",
          "type": "uint8"
        },
        {
          "internalType": "string",
          "name": "_flight",
          "type": "string"
        },
        {
          "internalType": "uint256",
          "name": "_timestamp",
          "type": "uint256"
        }
      ],
      "name": "registerFlight",
      "outputs": [],
      "payable": true,
      "stateMutability": "payable",
      "type": "function"
    },
    {
      "constant": true,
      "inputs": [],
      "name": "getFlights",
      "outputs": [
        {
          "internalType": "bytes32[]",
          "name": "",
          "type": "bytes32[]"
        }
      ],
      "payable": false,
      "stateMutability": "view",
      "type": "function"
    },
    {
      "constant": true,
      "inputs": [
        {
          "internalType": "bytes32",
          "name": "flightKey",
          "type": "bytes32"
        }
      ],
      "name": "getFlightData",
      "outputs": [
        {
          "internalType": "address",
          "name": "",
          "type": "address"
        },
        {
          "internalType": "string",
          "name": "",
          "type": "string"
        },
        {
          "internalType": "uint8",
          "name": "",
          "type": "uint8"
        },
        {
          "internalType": "uint256",
          "name": "",
          "type": "uint256"
        }
      ],
      "payable": false,
      "stateMutability": "view",
      "type": "function"
    },
    {
      "constant": false,
      "inputs": [
        {
          "internalType": "uint8",
          "name": "_airlineIndex",
          "type": "uint8"
        },
        {
          "internalType": "string",
          "name": "flight",
          "type": "string"
        },
        {
          "internalType": "uint256",
          "name": "timestamp",
          "type": "uint256"
        }
      ],
      "name": "fetchFlightStatus",
      "outputs": [],
      "payable": false,
      "stateMutability": "nonpayable",
      "type": "function"
    },
    {
      "constant": false,
      "inputs": [],
      "name": "registerOracle",
      "outputs": [],
      "payable": true,
      "stateMutability": "payable",
      "type": "function"
    },
    {
      "constant": true,
      "inputs": [],
      "name": "getMyIndexes",
      "outputs": [
        {
          "internalType": "uint8[3]",
          "name": "",
          "type": "uint8[3]"
        }
      ],
      "payable": false,
      "stateMutability": "view",
      "type": "function"
    },
    {
      "constant": false,
      "inputs": [
        {
          "internalType": "uint8",
          "name": "index",
          "type": "uint8"
        },
        {
          "internalType": "address",
          "name": "airline",
          "type": "address"
        },
        {
          "internalType": "string",
          "name": "flight",
          "type": "string"
        },
        {
          "internalType": "uint256",
          "name": "timestamp",
          "type": "uint256"
        },
        {
          "internalType": "uint8",
          "name": "statusCode",
          "type": "uint8"
        }
      ],
      "name": "submitOracleResponse",
      "outputs": [],
      "payable": false,
      "stateMutability": "nonpayable",
      "type": "function"
    }
  ],
  "bytecode": "0x60806040526000600860016101000a81548160ff021916908360ff16021790555034801561002c57600080fd5b506040516129c03803806129c08339818101604052602081101561004f57600080fd5b8101908080519060200190929190505050806000806101000a81548173ffffffffffffffffffffffffffffffffffffffff021916908373ffffffffffffffffffffffffffffffffffffffff16021790555033600160006101000a81548173ffffffffffffffffffffffffffffffffffffffff021916908373ffffffffffffffffffffffffffffffffffffffff1602179055506001600860006101000a81548160ff021916908315150217905550506128b48061010c6000396000f3fe60806040526004361061011f5760003560e01c806364b4f751116100a0578063bdfd987711610064578063bdfd987714610699578063c10f2700146106ea578063cd905dff146107b4578063d8ab5b89146107e3578063de7e864d146108345761011f565b806364b4f75114610517578063746da96314610542578063886fb6c7146105df57806394c260ee146106235780639ed189271461068f5761011f565b8063339d2590116100e7578063339d2590146102ec5780633a9a77ca146102f657806357721fee1461038a5780635f1cc0e61461043457806362754bdd146104875761011f565b80630a401086146101245780630d5dc05414610153578063110466ed1461020757806312065fe01461025c5780633370c91414610287575b600080fd5b34801561013057600080fd5b5061013961092f565b604051808215151515815260200191505060405180910390f35b34801561015f57600080fd5b50610168610942565b604051808060200180602001838103835285818151815260200191508051906020019060200280838360005b838110156101af578082015181840152602081019050610194565b50505050905001838103825284818151815260200191508051906020019060200280838360005b838110156101f15780820151818401526020810190506101d6565b5050505090500194505050505060405180910390f35b34801561021357600080fd5b506102426004803603602081101561022a57600080fd5b81019080803515159060200190929190505050610ace565b604051808215151515815260200191505060405180910390f35b34801561026857600080fd5b50610271610c5e565b6040518082815260200191505060405180910390f35b34801561029357600080fd5b506102d6600480360360208110156102aa57600080fd5b81019080803573ffffffffffffffffffffffffffffffffffffffff169060200190929190505050610ccb565b6040518082815260200191505060405180910390f35b6102f4610ce3565b005b34801561030257600080fd5b5061032f6004803603602081101561031957600080fd5b8101908080359060200190929190505050610e09565b604051808573ffffffffffffffffffffffffffffffffffffffff1673ffffffffffffffffffffffffffffffffffffffff1681526020018415151515815260200183815260200182815260200194505050505060405180910390f35b34801561039657600080fd5b506103d9600480360360208110156103ad57600080fd5b81019080803573ffffffffffffffffffffffffffffffffffffffff169060200190929190505050610e73565b604051808573ffffffffffffffffffffffffffffffffffffffff1673ffffffffffffffffffffffffffffffffffffffff1681526020018415151515815260200183815260200182815260200194505050505060405180910390f35b34801561044057600080fd5b50610449610f3f565b6040518082600360200280838360005b83811015610474578082015181840152602081019050610459565b5050505090500191505060405180910390f35b6105156004803603606081101561049d57600080fd5b81019080803560ff169060200190929190803590602001906401000000008111156104c757600080fd5b8201836020820111156104d957600080fd5b803590602001918460018302840111640100000000831117156104fb57600080fd5b9091929391929390803590602001909291905050506110b2565b005b34801561052357600080fd5b5061052c61139f565b6040518082815260200191505060405180910390f35b34801561054e57600080fd5b506105dd6004803603606081101561056557600080fd5b81019080803560ff1690602001909291908035906020019064010000000081111561058f57600080fd5b8201836020820111156105a157600080fd5b803590602001918460018302840111640100000000831117156105c357600080fd5b9091929391929390803590602001909291905050506113ab565b005b610621600480360360208110156105f557600080fd5b81019080803573ffffffffffffffffffffffffffffffffffffffff169060200190929190505050611648565b005b34801561062f57600080fd5b50610638611892565b6040518080602001828103825283818151815260200191508051906020019060200280838360005b8381101561067b578082015181840152602081019050610660565b505050509050019250505060405180910390f35b61069761193a565b005b3480156106a557600080fd5b506106e8600480360360208110156106bc57600080fd5b81019080803573ffffffffffffffffffffffffffffffffffffffff169060200190929190505050611a22565b005b3480156106f657600080fd5b506107b2600480360360a081101561070d57600080fd5b81019080803560ff169060200190929190803573ffffffffffffffffffffffffffffffffffffffff1690602001909291908035906020019064010000000081111561075757600080fd5b82018360208201111561076957600080fd5b8035906020019184600183028401116401000000008311171561078b57600080fd5b909192939192939080359060200190929190803560ff169060200190929190505050611ad5565b005b3480156107c057600080fd5b506107c9611ff6565b604051808215151515815260200191505060405180910390f35b3480156107ef57600080fd5b506108326004803603602081101561080657600080fd5b81019080803573ffffffffffffffffffffffffffffffffffffffff16906020019092919050505061200d565b005b34801561084057600080fd5b5061086d6004803603602081101561085757600080fd5b810190808035906020019092919050505061212a565b604051808573ffffffffffffffffffffffffffffffffffffffff1673ffffffffffffffffffffffffffffffffffffffff168152602001806020018460ff1660ff168152602001838152602001828103825285818151815260200191508051906020019080838360005b838110156108f15780820151818401526020810190506108d6565b50505050905090810190601f16801561091e5780820380516001836020036101000a031916815260200191505b509550505050505060405180910390f35b600860009054906101000a900460ff1681565b606080606060058054905060405190808252806020026020018201604052801561097b5781602001602082028038833980820191505090505b50905060606006805490506040519080825280602002602001820160405280156109b45781602001602082028038833980820191505090505b50905060008090505b600580549050811015610ac1576002600582815481106109d957fe5b9060005260206000200154815481106109ee57fe5b906000526020600020906004020160010154838281518110610a0c57fe5b602002602001018181525050600260058281548110610a2757fe5b906000526020600020015481548110610a3c57fe5b906000526020600020906004020160000160009054906101000a900473ffffffffffffffffffffffffffffffffffffffff16828281518110610a7a57fe5b602002602001019073ffffffffffffffffffffffffffffffffffffffff16908173ffffffffffffffffffffffffffffffffffffffff168152505080806001019150506109bd565b5081819350935050509091565b6000600160009054906101000a900473ffffffffffffffffffffffffffffffffffffffff1673ffffffffffffffffffffffffffffffffffffffff163373ffffffffffffffffffffffffffffffffffffffff1614610b93576040517f08c379a000000000000000000000000000000000000000000000000000000000815260040180806020018281038252601c8152602001807f43616c6c6572206973206e6f7420636f6e7472616374206f776e65720000000081525060200191505060405180910390fd5b81600860009054906101000a900460ff1615158115151415610c00576040517f08c379a00000000000000000000000000000000000000000000000000000000081526004018080602001828103825260278152602001806128116027913960400191505060405180910390fd5b82600860006101000a81548160ff0219169083151502179055507f896889b60cdc10f9b7ae3d3e485f3a919a7bb14a6a32645578f583abfa4c66d983604051808215151515815260200191505060405180910390a182915050919050565b6000600860009054906101000a900460ff16610cc5576040517f08c379a00000000000000000000000000000000000000000000000000000000081526004018080602001828103825260258152602001806128386025913960400191505060405180910390fd5b47905090565b60046020528060005260406000206000915090505481565b670de0b6b3a7640000341015610d61576040517f08c379a000000000000000000000000000000000000000000000000000000000815260040180806020018281038252601c8152602001807f526567697374726174696f6e206665652069732072657175697265640000000081525060200191505060405180910390fd5b610d69612650565b610d72336122c9565b9050604051806040016040528060011515815260200182815250600960003373ffffffffffffffffffffffffffffffffffffffff1673ffffffffffffffffffffffffffffffffffffffff16815260200190815260200160002060008201518160000160006101000a81548160ff021916908315150217905550602082015181600101906003610e02929190612672565b5090505050565b60028181548110610e1657fe5b90600052602060002090600402016000915090508060000160009054906101000a900473ffffffffffffffffffffffffffffffffffffffff16908060000160149054906101000a900460ff16908060010154908060020154905084565b6000806000806000610e8486612455565b905060028181548110610e9357fe5b906000526020600020906004020160000160009054906101000a900473ffffffffffffffffffffffffffffffffffffffff1660028281548110610ed257fe5b906000526020600020906004020160000160149054906101000a900460ff1660028381548110610efe57fe5b90600052602060002090600402016001015460028481548110610f1d57fe5b9060005260206000209060040201600201549450945094509450509193509193565b610f47612650565b600960003373ffffffffffffffffffffffffffffffffffffffff1673ffffffffffffffffffffffffffffffffffffffff16815260200190815260200160002060000160009054906101000a900460ff16611009576040517f08c379a000000000000000000000000000000000000000000000000000000000815260040180806020018281038252601b8152602001807f4e6f74207265676973746572656420617320616e206f7261636c65000000000081525060200191505060405180910390fd5b600960003373ffffffffffffffffffffffffffffffffffffffff1673ffffffffffffffffffffffffffffffffffffffff1681526020019081526020016000206001016003806020026040519081016040528092919082600380156110a8576020028201916000905b82829054906101000a900460ff1660ff16815260200190600101906020826000010492830192600103820291508084116110715790505b5050505050905090565b600060028560ff16815481106110c457fe5b906000526020600020906004020160000160009054906101000a900473ffffffffffffffffffffffffffffffffffffffff16905060006111493386868080601f016020809104026020016040519081016040528093929190818152602001838380828437600081840152601f19601f820116905080830192505050505050508561249e565b90506040518060c001604052808373ffffffffffffffffffffffffffffffffffffffff16815260200160011515815260200182815260200186868080601f016020809104026020016040519081016040528093929190818152602001838380828437600081840152601f19601f820116905080830192505050505050508152602001600060ff168152602001848152506003600083815260200190815260200160002060008201518160000160006101000a81548173ffffffffffffffffffffffffffffffffffffffff021916908373ffffffffffffffffffffffffffffffffffffffff16021790555060208201518160000160146101000a81548160ff02191690831515021790555060408201518160010155606082015181600201908051906020019061127992919061270c565b5060808201518160030160006101000a81548160ff021916908360ff16021790555060a0820151816004015590505060078190806001815401808255809150509060018203906000526020600020016000909192909190915055507f35288126b85d500935cce31ade35f55a56b43c5d960548849baee4acb3e07124826001838888600089604051808873ffffffffffffffffffffffffffffffffffffffff1673ffffffffffffffffffffffffffffffffffffffff16815260200187151515158152602001868152602001806020018460ff1660ff1681526020018381526020018281038252868682818152602001925080828437600081840152601f19601f8201169050808301925050509850505050505050505060405180910390a1505050505050565b670de0b6b3a764000081565b600860009054906101000a900460ff16611410576040517f08c379a00000000000000000000000000000000000000000000000000000000081526004018080602001828103825260258152602001806128386025913960400191505060405180910390fd5b600061141b3361255a565b9050600060028660ff168154811061142f57fe5b906000526020600020906004020160000160009054906101000a900473ffffffffffffffffffffffffffffffffffffffff16905060008282878787604051602001808660ff1660ff1660f81b81526001018573ffffffffffffffffffffffffffffffffffffffff1673ffffffffffffffffffffffffffffffffffffffff1660601b8152601401848480828437808301925050508281526020019550505050505060405160208183030381529060405280519060200120905060405180604001604052803373ffffffffffffffffffffffffffffffffffffffff16815260200160011515815250600a600083815260200190815260200160002060008201518160000160006101000a81548173ffffffffffffffffffffffffffffffffffffffff021916908373ffffffffffffffffffffffffffffffffffffffff16021790555060208201518160000160146101000a81548160ff0219169083151502179055509050507f3ed01f2c3fc24c6b329d931e35b03e390d23497d22b3f90e15b600343e93df118383888888604051808660ff1660ff1681526020018573ffffffffffffffffffffffffffffffffffffffff1673ffffffffffffffffffffffffffffffffffffffff168152602001806020018381526020018281038252858582818152602001925080828437600081840152601f19601f820116905080830192505050965050505050505060405180910390a150505050505050565b60006002805490509050600260405180608001604052808473ffffffffffffffffffffffffffffffffffffffff16815260200160001515815260200183815260200160008152509080600181540180825580915050906001820390600052602060002090600402016000909192909190915060008201518160000160006101000a81548173ffffffffffffffffffffffffffffffffffffffff021916908373ffffffffffffffffffffffffffffffffffffffff16021790555060208201518160000160146101000a81548160ff021916908315150217905550604082015181600101556060820151816002015550505080600460008473ffffffffffffffffffffffffffffffffffffffff1673ffffffffffffffffffffffffffffffffffffffff16815260200190815260200160002081905550600581908060018154018082558091505090600182039060005260206000200160009091929091909150555060068290806001815401808255809150509060018203906000526020600020016000909192909190916101000a81548173ffffffffffffffffffffffffffffffffffffffff021916908373ffffffffffffffffffffffffffffffffffffffff160217905550507f1ffb3ac4bc2f161ce3b64557b0768930ea4e8015dd9a924a402364522392334e8282600080604051808573ffffffffffffffffffffffffffffffffffffffff1673ffffffffffffffffffffffffffffffffffffffff1681526020018481526020018315151515815260200182815260200194505050505060405180910390a15050565b6060806007805490506040519080825280602002602001820160405280156118c95781602001602082028038833980820191505090505b50905060008090505b6007805490508110156119325760036000600783815481106118f057fe5b906000526020600020015481526020019081526020016000206001015482828151811061191957fe5b60200260200101818152505080806001019150506118d2565b508091505090565b600860009054906101000a900460ff1661199f576040517f08c379a00000000000000000000000000000000000000000000000000000000081526004018080602001828103825260258152602001806128386025913960400191505060405180910390fd5b6000809054906101000a900473ffffffffffffffffffffffffffffffffffffffff1673ffffffffffffffffffffffffffffffffffffffff16639ed189276040518163ffffffff1660e01b8152600401600060405180830381600087803b158015611a0857600080fd5b505af1158015611a1c573d6000803e3d6000fd5b50505050565b6000611a2d82612455565b9050600160028281548110611a3e57fe5b906000526020600020906004020160000160146101000a81548160ff0219169083151502179055507f0348e424b6107b3c843eeaf194174ea2a25700e8c250211c705ca0aa35e54b8e3382604051808373ffffffffffffffffffffffffffffffffffffffff1673ffffffffffffffffffffffffffffffffffffffff1681526020018281526020019250505060405180910390a15050565b8560ff16600960003373ffffffffffffffffffffffffffffffffffffffff1673ffffffffffffffffffffffffffffffffffffffff168152602001908152602001600020600101600060038110611b2757fe5b602091828204019190069054906101000a900460ff1660ff161480611bb457508560ff16600960003373ffffffffffffffffffffffffffffffffffffffff1673ffffffffffffffffffffffffffffffffffffffff168152602001908152602001600020600101600160038110611b9957fe5b602091828204019190069054906101000a900460ff1660ff16145b80611c2757508560ff16600960003373ffffffffffffffffffffffffffffffffffffffff1673ffffffffffffffffffffffffffffffffffffffff168152602001908152602001600020600101600260038110611c0c57fe5b602091828204019190069054906101000a900460ff1660ff16145b611c7c576040517f08c379a000000000000000000000000000000000000000000000000000000000815260040180806020018281038252602381526020018061285d6023913960400191505060405180910390fd5b60008686868686604051602001808660ff1660ff1660f81b81526001018573ffffffffffffffffffffffffffffffffffffffff1673ffffffffffffffffffffffffffffffffffffffff1660601b81526014018484808284378083019250505082815260200195505050505050604051602081830303815290604052805190602001209050600a600082815260200190815260200160002060000160149054906101000a900460ff16611d79576040517f08c379a000000000000000000000000000000000000000000000000000000000815260040180806020018281038252602f8152602001806127e2602f913960400191505060405180910390fd5b600a600082815260200190815260200160002060010160008360ff1660ff1681526020019081526020016000203390806001815401808255809150509060018203906000526020600020016000909192909190916101000a81548173ffffffffffffffffffffffffffffffffffffffff021916908373ffffffffffffffffffffffffffffffffffffffff160217905550507f43c853095c2752648493c88b4baac4d580d2594ffb00c6f1d4242d844514f7838686868686604051808673ffffffffffffffffffffffffffffffffffffffff1673ffffffffffffffffffffffffffffffffffffffff168152602001806020018481526020018360ff1660ff1681526020018281038252868682818152602001925080828437600081840152601f19601f820116905080830192505050965050505050505060405180910390a16003600a600083815260200190815260200160002060010160008460ff1660ff1681526020019081526020016000208054905010611fed577fe23f5229de535c091e3b7bec2665f5d698192d3b31393066e8987b7a05076b6c8686868686604051808673ffffffffffffffffffffffffffffffffffffffff1673ffffffffffffffffffffffffffffffffffffffff168152602001806020018481526020018360ff1660ff1681526020018281038252868682818152602001925080828437600081840152601f19601f820116905080830192505050965050505050505060405180910390a1611fec8686868080601f016020809104026020016040519081016040528093929190818152602001838380828437600081840152601f19601f82011690508083019250505050505050858561264a565b5b50505050505050565b6000600860009054906101000a900460ff16905090565b600061201882612455565b905060016002828154811061202957fe5b90600052602060002090600402016002016000828254019250508190555060016002828154811061205657fe5b906000526020600020906004020160030160003373ffffffffffffffffffffffffffffffffffffffff1673ffffffffffffffffffffffffffffffffffffffff16815260200190815260200160002060006101000a81548160ff0219169083151502179055507f0396b369b352607e33f678a4cdd3e80e123ea8bf5e533e5d7ee824739e85fb893382604051808373ffffffffffffffffffffffffffffffffffffffff1673ffffffffffffffffffffffffffffffffffffffff1681526020018281526020019250505060405180910390a15050565b60006060600080600860009054906101000a900460ff16612196576040517f08c379a00000000000000000000000000000000000000000000000000000000081526004018080602001828103825260258152602001806128386025913960400191505060405180910390fd5b6003600086815260200190815260200160002060000160009054906101000a900473ffffffffffffffffffffffffffffffffffffffff16600360008781526020019081526020016000206002016003600088815260200190815260200160002060030160009054906101000a900460ff166003600089815260200190815260200160002060040154828054600181600116156101000203166002900480601f0160208091040260200160405190810160405280929190818152602001828054600181600116156101000203166002900480156122b35780601f10612288576101008083540402835291602001916122b3565b820191906000526020600020905b81548152906001019060200180831161229657829003601f168201915b5050505050925093509350935093509193509193565b6122d1612650565b6122d9612650565b6122e28361255a565b816000600381106122ef57fe5b602002019060ff16908160ff16815250508060006003811061230d57fe5b60200201518160016003811061231f57fe5b602002019060ff16908160ff16815250505b8060006003811061233e57fe5b602002015160ff168160016003811061235357fe5b602002015160ff16141561238d5761236a8361255a565b8160016003811061237757fe5b602002019060ff16908160ff1681525050612331565b8060016003811061239a57fe5b6020020151816002600381106123ac57fe5b602002019060ff16908160ff16815250505b806000600381106123cb57fe5b602002015160ff16816002600381106123e057fe5b602002015160ff16148061241b5750806001600381106123fc57fe5b602002015160ff168160026003811061241157fe5b602002015160ff16145b1561244c576124298361255a565b8160026003811061243657fe5b602002019060ff16908160ff16815250506123be565b80915050919050565b6000600460008373ffffffffffffffffffffffffffffffffffffffff1673ffffffffffffffffffffffffffffffffffffffff168152602001908152602001600020549050919050565b6000838383604051602001808473ffffffffffffffffffffffffffffffffffffffff1673ffffffffffffffffffffffffffffffffffffffff1660601b815260140183805190602001908083835b6020831061250e57805182526020820191506020810190506020830392506124eb565b6001836020036101000a03801982511681845116808217855250505050505090500182815260200193505050506040516020818303038152906040528051906020012090509392505050565b600080600a905060008160ff166008600181819054906101000a900460ff168092919060010191906101000a81548160ff021916908360ff16021790555060ff1643034085604051602001808381526020018273ffffffffffffffffffffffffffffffffffffffff1673ffffffffffffffffffffffffffffffffffffffff1660601b8152601401925050506040516020818303038152906040528051906020012060001c8161260557fe5b06905060fa600860019054906101000a900460ff1660ff161115612640576000600860016101000a81548160ff021916908360ff1602179055505b8092505050919050565b50505050565b6040518060600160405280600390602082028038833980820191505090505090565b826003601f016020900481019282156126fb5791602002820160005b838211156126cc57835183826101000a81548160ff021916908360ff160217905550926020019260010160208160000104928301926001030261268e565b80156126f95782816101000a81549060ff02191690556001016020816000010492830192600103026126cc565b505b509050612708919061278c565b5090565b828054600181600116156101000203166002900490600052602060002090601f016020900481019282601f1061274d57805160ff191683800117855561277b565b8280016001018555821561277b579182015b8281111561277a57825182559160200191906001019061275f565b5b50905061278891906127bc565b5090565b6127b991905b808211156127b557600081816101000a81549060ff021916905550600101612792565b5090565b90565b6127de91905b808211156127da5760008160009055506001016127c2565b5090565b9056fe466c69676874206f722074696d657374616d7020646f206e6f74206d61746368206f7261636c652072657175657374436f6e747261637420616c726561647920696e2074686520737461746520726571756573746564436f6e74726163742069732063757272656e746c79206e6f74206f7065726174696f6e616c496e64657820646f6573206e6f74206d61746368206f7261636c652072657175657374a265627a7a723158209a00e7dee3e9ef08bbd7a92a0ec605a09b3fbb58697da890c772a1e1b535c4f364736f6c63430005110032",
  "source": "pragma solidity ^0.5.0;\n\n// It's important to avoid vulnerabilities due to numeric overflow bugs\n// OpenZeppelin's SafeMath library, when used correctly, protects agains such bugs\n// More info: https://www.nccgroup.trust/us/about-us/newsroom-and-events/blog/2018/november/smart-contract-insecurity-bad-arithmetic/\n\nimport \"../node_modules/openzeppelin-solidity/contracts/math/SafeMath.sol\";\nimport \"./FlightSuretyData.sol\";\n\n/************************************************** */\n/* FlightSurety Smart Contract                      */\n/************************************************** */\ncontract FlightSuretyApp {\n    using SafeMath for uint256; // Allow SafeMath functions to be called for all uint256 types (similar to \"prototype\" in Javascript)\n\n    FlightSuretyData flightSuretyData;\n\n    /********************************************************************************************/\n    /*                                       DATA VARIABLES                                     */\n    /********************************************************************************************/\n\n    // Flight status codees\n    uint8 private constant STATUS_CODE_UNKNOWN = 0;\n    uint8 private constant STATUS_CODE_ON_TIME = 10;\n    uint8 private constant STATUS_CODE_LATE_AIRLINE = 20;\n    uint8 private constant STATUS_CODE_LATE_WEATHER = 30;\n    uint8 private constant STATUS_CODE_LATE_TECHNICAL = 40;\n    uint8 private constant STATUS_CODE_LATE_OTHER = 50;\n\n    address payable contractOwner;          // Account used to deploy contract\n\n    struct Airline {\n        address airline;\n        bool approved;\n        uint256 regIndex;\n        uint256 votes;\n        mapping(address => bool) votedFor;\n    }\n    Airline[] public airlines;\n\n    struct Flight {\n        address airline;\n        bool isRegistered;\n        bytes32 flightKey;\n        string flightNumber;\n        uint8 statusCode;\n        uint256 updatedTimestamp;\n    }\n    mapping(bytes32 => Flight) private flights;\n\n    mapping(address => uint256) public regIndexAirline;\n    uint256[] private airlineKeys;\n    address[] private addressesAirlines;\n\n    bytes32[] private regIndexFlight;\n\n    bool public operational;\n\n    /********************************************************************************************/\n    /*                                       EVENTS                                             */\n    /********************************************************************************************/\n\n    event OperationalStatusChanged(bool mode);\n    event submittedAirline(address airline, uint256 regIndex, bool executed, uint256 numVotes);\n    event votedAirline(address airline, uint256 _regIndex);\n    event registeredAirline(address airline, uint256 _regIndex);\n    event airlinePaid(address airline, uint256 value);\n    event registeredFlight(address airline, bool isRegistered, bytes32 flightKey, string flightNumber, uint8 statusCode, uint256 updatedTimestamp);\n\n    /********************************************************************************************/\n    /*                                       FUNCTION MODIFIERS                                 */\n    /********************************************************************************************/\n\n    // Modifiers help avoid duplication of code. They are typically used to validate something\n    // before a function is allowed to be executed.\n\n    /**\n    * @dev Modifier that requires the \"operational\" boolean variable to be \"true\"\n    *      This is used on all state changing functions to pause the contract in\n    *      the event there is an issue that needs to be fixed\n    */\n    modifier requireIsOperational()\n    {\n        // Modify to call data contract's status\n        require(operational, \"Contract is currently not operational\");\n        _;  // All modifiers require an \"_\" which indicates where the function body will be added\n    }\n\n    modifier differentModeRequest(bool status)\n    {\n        require(status != operational, \"Contract already in the state requested\");\n        _;\n    }\n\n    /**\n    * @dev Modifier that requires the \"ContractOwner\" account to be the function caller\n    */\n    modifier requireContractOwner()\n    {\n        require(msg.sender == contractOwner, \"Caller is not contract owner\");\n        _;\n    }\n\n    /********************************************************************************************/\n    /*                                       CONSTRUCTOR                                        */\n    /********************************************************************************************/\n\n    /**\n    * @dev Contract constructor\n    *\n    */\n    constructor(address payable _dataContract) public {\n        flightSuretyData = FlightSuretyData(_dataContract);\n        contractOwner = msg.sender;\n        operational = true;\n    }\n\n    /********************************************************************************************/\n    /*                                       UTILITY FUNCTIONS                                  */\n    /********************************************************************************************/\n\n    /**\n    * @dev Get operating status of contract\n    *\n    * @return A bool that is the current operating status\n    */\n    function isOperational() public view returns(bool){\n        return operational;\n    }\n\n    /**\n    * @dev Sets contract operations on/off\n    *\n    * When operational mode is disabled, all write transactions except for this one will fail\n    */\n    function setOperatingStatus(bool mode) external requireContractOwner differentModeRequest(mode) returns(bool){\n        operational = mode;\n        emit OperationalStatusChanged(mode);\n        return mode;\n    }\n\n    /**\n    * @dev getting balance of funds held in this contract address\n    *\n    */\n    function getBalance() public view requireIsOperational returns (uint256) {\n        return address(this).balance;\n    }\n\n    /********************************************************************************************/\n    /*                                     SMART CONTRACT FUNCTIONS                             */\n    /********************************************************************************************/\n\n\n    /**\n     * @dev Add an airline to the submit queue\n    *\n    */\n    function submitAirline\n    (\n        address _airline\n    )\n    external\n    payable\n    {\n        uint256 _regIndex = airlines.length;\n\n        airlines.push(Airline({\n            airline: _airline,\n            approved: false,\n            regIndex: _regIndex,\n            votes: 0\n        }));\n\n        regIndexAirline[_airline] = _regIndex;\n        airlineKeys.push(_regIndex);\n        addressesAirlines.push(_airline);\n\n        emit submittedAirline(_airline, _regIndex, false, 0);\n    }\n\n    /**\n     * @dev Vote an airline\n    *\n    */\n    function voteAirline\n    (\n        address _airline\n    )\n    external\n    {\n        uint256 regIndex = _getRegIndex(_airline);\n\n        airlines[regIndex].votes += 1;\n        airlines[regIndex].votedFor[msg.sender] = true;\n\n        emit votedAirline(msg.sender, regIndex);\n    }\n\n    function _getRegIndex (address _airline) private view returns (uint256) {\n        return regIndexAirline[_airline];\n    }\n\n    /**\n     * @dev Add an airline to the registration queue\n    *\n    */\n    function registerAirline\n    (\n        address _airline\n    )\n    external\n    {\n        uint256 regIndex = _getRegIndex(_airline);\n        airlines[regIndex].approved = true;\n\n        emit registeredAirline(msg.sender, regIndex);\n    }\n\n    /**\n    * @dev pay for registering Airline\n    *\n    */\n    function fundAirline() external payable requireIsOperational {\n        flightSuretyData.fundAirline();\n    }\n\n    /**\n * @dev Get airline status\n    *\n    */\n    function getAirlineStatus\n    (\n        address _airline\n    )\n    external\n    view\n    returns(address, bool, uint256, uint256)\n    {\n        uint256 regIndex = _getRegIndex(_airline);\n        return (airlines[regIndex].airline, airlines[regIndex].approved, airlines[regIndex].regIndex, airlines[regIndex].votes);\n    }\n\n\n    function getAirlines() external view returns(uint256[] memory, address[] memory) {\n        uint256[] memory arrAirlines = new uint256[](airlineKeys.length);\n        address[] memory arrAddressesAirlines = new address[](addressesAirlines.length);\n        for (uint i = 0; i < airlineKeys.length; i++){\n            arrAirlines[i] = airlines[airlineKeys[i]].regIndex;\n            arrAddressesAirlines[i] = airlines[airlineKeys[i]].airline;\n        }\n        return (arrAirlines, arrAddressesAirlines);\n    }\n\n    /**\n     * @dev Register a future flight for insuring.\n    *\n    */\n    function registerFlight\n    (\n        uint8 _airlineIndex,\n        string calldata _flight,\n        uint256 _timestamp\n    )\n    external\n    payable\n    {\n        address _airline = airlines[_airlineIndex].airline;\n        bytes32 flightKey = getFlightKey(msg.sender, _flight, _timestamp);\n\n        flights[flightKey] = Flight ({\n            airline: _airline,\n            isRegistered: true,\n            flightKey: flightKey,\n            flightNumber: _flight,\n            statusCode: STATUS_CODE_UNKNOWN,\n            updatedTimestamp: _timestamp\n        });\n\n        regIndexFlight.push(flightKey);\n\n        emit registeredFlight(_airline, true, flightKey, _flight, STATUS_CODE_UNKNOWN, _timestamp);\n    }\n\n    function getFlights() external view returns (bytes32[] memory ) {\n        bytes32[] memory arrFlights = new bytes32[](regIndexFlight.length);\n\n        for (uint i = 0; i < regIndexFlight.length; i++){\n            arrFlights[i] = flights[regIndexFlight[i]].flightKey;\n        }\n\n        return (arrFlights);\n    }\n\n    function getFlightData(bytes32 flightKey) external view requireIsOperational returns(address, string memory, uint8, uint256) {\n        return (flights[flightKey].airline, flights[flightKey].flightNumber, flights[flightKey].statusCode, flights[flightKey].updatedTimestamp);\n    }\n\n    /**\n     * @dev Called after oracle has updated flight status\n    *\n    */\n    function processFlightStatus\n    (\n        address airline,\n        string memory flight,\n        uint256 timestamp,\n        uint8 statusCode\n    )\n    internal\n    pure\n    {\n    }\n\n\n    // Generate a request for oracles to fetch flight information\n    function fetchFlightStatus\n                        (\n                            uint8 _airlineIndex,\n                            string calldata flight,\n                            uint256 timestamp\n                        )\n                        external\n                        requireIsOperational\n    {\n        uint8 index = getRandomIndex(msg.sender);\n        address _airline = airlines[_airlineIndex].airline;\n\n        // Generate a unique key for storing the request\n        bytes32 key = keccak256(abi.encodePacked(index, _airline, flight, timestamp));\n        oracleResponses[key] = ResponseInfo({\n                                                requester: msg.sender,\n                                                isOpen: true\n                                            });\n\n        emit OracleRequest(index, _airline, flight, timestamp);\n    } \n\n\n    // region ORACLE MANAGEMENT\n\n    // Incremented to add pseudo-randomness at various points\n    uint8 private nonce = 0;\n\n    // Fee to be paid when registering oracle\n    uint256 public constant REGISTRATION_FEE = 1 ether;\n\n    // Number of oracles that must respond for valid status\n    uint256 private constant MIN_RESPONSES = 3;\n\n\n    struct Oracle {\n        bool isRegistered;\n        uint8[3] indexes;\n    }\n\n    // Track all registered oracles\n    mapping(address => Oracle) private oracles;\n\n    // Model for responses from oracles\n    struct ResponseInfo {\n        address requester;                              // Account that requested status\n        bool isOpen;                                    // If open, oracle responses are accepted\n        mapping(uint8 => address[]) responses;          // Mapping key is the status code reported\n        // This lets us group responses and identify\n        // the response that majority of the oracles\n    }\n\n    // Track all oracle responses\n    // Key = hash(index, flight, timestamp)\n    mapping(bytes32 => ResponseInfo) private oracleResponses;\n\n    // Event fired each time an oracle submits a response\n    event FlightStatusInfo(address airline, string flight, uint256 timestamp, uint8 status);\n\n    event OracleReport(address airline, string flight, uint256 timestamp, uint8 status);\n\n    // Event fired when flight status request is submitted\n    // Oracles track this and if they have a matching index\n    // they fetch data and submit a response\n    event OracleRequest(uint8 index, address airline, string flight, uint256 timestamp);\n\n\n    // Register an oracle with the contract\n    function registerOracle\n    (\n    )\n    external\n    payable\n    {\n        // Require registration fee\n        require(msg.value >= REGISTRATION_FEE, \"Registration fee is required\");\n\n        uint8[3] memory indexes = generateIndexes(msg.sender);\n\n        oracles[msg.sender] = Oracle({\n        isRegistered: true,\n        indexes: indexes\n        });\n    }\n\n    function getMyIndexes\n                            (\n                            )\n                            view\n                            external\n                            returns(uint8[3] memory)\n    {\n        require(oracles[msg.sender].isRegistered, \"Not registered as an oracle\");\n\n        return oracles[msg.sender].indexes;\n    }\n\n\n\n\n    // Called by oracle when a response is available to an outstanding request\n    // For the response to be accepted, there must be a pending request that is open\n    // and matches one of the three Indexes randomly assigned to the oracle at the\n    // time of registration (i.e. uninvited oracles are not welcome)\n    function submitOracleResponse\n                        (\n                            uint8 index,\n                            address airline,\n                            string calldata flight,\n                            uint256 timestamp,\n                            uint8 statusCode\n                        )\n                        external\n    {\n        require((oracles[msg.sender].indexes[0] == index) || (oracles[msg.sender].indexes[1] == index) || (oracles[msg.sender].indexes[2] == index), \"Index does not match oracle request\");\n\n\n        bytes32 key = keccak256(abi.encodePacked(index, airline, flight, timestamp));\n        require(oracleResponses[key].isOpen, \"Flight or timestamp do not match oracle request\");\n\n        oracleResponses[key].responses[statusCode].push(msg.sender);\n\n        // Information isn't considered verified until at least MIN_RESPONSES\n        // oracles respond with the *** same *** information\n        emit OracleReport(airline, flight, timestamp, statusCode);\n        if (oracleResponses[key].responses[statusCode].length >= MIN_RESPONSES) {\n\n            emit FlightStatusInfo(airline, flight, timestamp, statusCode);\n\n            // Handle flight status as appropriate\n            processFlightStatus(airline, flight, timestamp, statusCode);\n        }\n    }\n\n\n    function getFlightKey\n    (\n        address airline,\n        string memory flight,\n        uint256 timestamp\n    )\n    pure\n    internal\n    returns(bytes32)\n    {\n        return keccak256(abi.encodePacked(airline, flight, timestamp));\n    }\n\n    // Returns array of three non-duplicating integers from 0-9\n    function generateIndexes\n    (\n        address account\n    )\n    internal\n    returns(uint8[3] memory)\n    {\n        uint8[3] memory indexes;\n        indexes[0] = getRandomIndex(account);\n\n        indexes[1] = indexes[0];\n        while(indexes[1] == indexes[0]) {\n            indexes[1] = getRandomIndex(account);\n        }\n\n        indexes[2] = indexes[1];\n        while((indexes[2] == indexes[0]) || (indexes[2] == indexes[1])) {\n            indexes[2] = getRandomIndex(account);\n        }\n\n        return indexes;\n    }\n\n    // Returns array of three non-duplicating integers from 0-9\n    function getRandomIndex\n    (\n        address account\n    )\n    internal\n    returns (uint8)\n    {\n        uint8 maxValue = 10;\n\n        // Pseudo random number...the incrementing nonce adds variation\n        uint8 random = uint8(uint256(keccak256(abi.encodePacked(blockhash(block.number - nonce++), account))) % maxValue);\n\n        if (nonce > 250) {\n            nonce = 0;  // Can only fetch blockhashes for last 256 blocks so we adapt\n        }\n\n        return random;\n    }\n\n    // endregion\n\n}   \n",
  "sourcePath": "/Users/hdominguez/Documents/blockchain_nanodegree/FlightSuretyDapp/contracts/FlightSuretyApp.sol",
  "compiler": {
    "name": "solc",
    "version": "0.5.17+commit.d19bba13.Emscripten.clang"
  },
  "schemaVersion": "3.3.4",
  "updatedAt": "2022-01-22T20:32:49.536Z",
  "networkType": "ethereum",
  "devdoc": {
    "methods": {
      "constructor": {
        "details": "Contract constructor    "
      },
      "fundAirline()": {
        "details": "pay for registering Airline    "
      },
      "getAirlineStatus(address)": {
        "details": "Get airline status    "
      },
      "getBalance()": {
        "details": "getting balance of funds held in this contract address    "
      },
      "isOperational()": {
        "details": "Get operating status of contract",
        "return": "A bool that is the current operating status"
      },
      "registerAirline(address)": {
        "details": "Add an airline to the registration queue    "
      },
      "registerFlight(uint8,string,uint256)": {
        "details": "Register a future flight for insuring.    "
      },
      "setOperatingStatus(bool)": {
        "details": "Sets contract operations on/off    * When operational mode is disabled, all write transactions except for this one will fail"
      },
      "submitAirline(address)": {
        "details": "Add an airline to the submit queue    "
      },
      "voteAirline(address)": {
        "details": "Vote an airline    "
      }
    }
  },
  "userdoc": {
    "methods": {},
    "notice": "************************************************ "
  }
}