{
  "contractName": "FlightSuretyData",
  "abi": [
    {
      "inputs": [],
      "payable": true,
      "stateMutability": "payable",
      "type": "constructor"
    },
    {
      "anonymous": false,
      "inputs": [
        {
          "indexed": false,
          "internalType": "bool",
          "name": "mode",
          "type": "bool"
        }
      ],
      "name": "OperationalStatusChanged",
      "type": "event"
    },
    {
      "payable": true,
      "stateMutability": "payable",
      "type": "fallback"
    },
    {
      "constant": true,
      "inputs": [
        {
          "internalType": "address",
          "name": "",
          "type": "address"
        }
      ],
      "name": "authorizedCallers",
      "outputs": [
        {
          "internalType": "bool",
          "name": "",
          "type": "bool"
        }
      ],
      "payable": false,
      "stateMutability": "view",
      "type": "function"
    },
    {
      "constant": true,
      "inputs": [],
      "name": "isOperational",
      "outputs": [
        {
          "internalType": "bool",
          "name": "",
          "type": "bool"
        }
      ],
      "payable": false,
      "stateMutability": "view",
      "type": "function"
    },
    {
      "constant": false,
      "inputs": [
        {
          "internalType": "bool",
          "name": "mode",
          "type": "bool"
        }
      ],
      "name": "setOperatingStatus",
      "outputs": [],
      "payable": false,
      "stateMutability": "nonpayable",
      "type": "function"
    },
    {
      "constant": false,
      "inputs": [
        {
          "internalType": "address",
          "name": "callerAddress",
          "type": "address"
        }
      ],
      "name": "authorizeCaller",
      "outputs": [],
      "payable": false,
      "stateMutability": "nonpayable",
      "type": "function"
    },
    {
      "constant": true,
      "inputs": [],
      "name": "registerAirline",
      "outputs": [],
      "payable": false,
      "stateMutability": "pure",
      "type": "function"
    },
    {
      "constant": false,
      "inputs": [],
      "name": "buy",
      "outputs": [],
      "payable": true,
      "stateMutability": "payable",
      "type": "function"
    },
    {
      "constant": true,
      "inputs": [],
      "name": "creditInsurees",
      "outputs": [],
      "payable": false,
      "stateMutability": "pure",
      "type": "function"
    },
    {
      "constant": false,
      "inputs": [],
      "name": "fundAirline",
      "outputs": [],
      "payable": true,
      "stateMutability": "payable",
      "type": "function"
    },
    {
      "constant": true,
      "inputs": [],
      "name": "getBalance",
      "outputs": [
        {
          "internalType": "uint256",
          "name": "",
          "type": "uint256"
        }
      ],
      "payable": false,
      "stateMutability": "view",
      "type": "function"
    },
    {
      "constant": true,
      "inputs": [],
      "name": "pay",
      "outputs": [],
      "payable": false,
      "stateMutability": "pure",
      "type": "function"
    },
    {
      "constant": false,
      "inputs": [],
      "name": "fund",
      "outputs": [],
      "payable": true,
      "stateMutability": "payable",
      "type": "function"
    }
  ],
  "bytecode": "0x60806040526001600060146101000a81548160ff021916908315150217905550336000806101000a81548173ffffffffffffffffffffffffffffffffffffffff021916908373ffffffffffffffffffffffffffffffffffffffff1602179055506107658061006e6000396000f3fe60806040526004361061009c5760003560e01c8063536fff6c11610064578063536fff6c1461018d57806363e29a3f146101f65780639ed189271461020d578063a6f2ae3a14610217578063b60d428814610221578063cd905dff1461022b5761009c565b8063110466ed146100a657806312065fe0146100e35780631b9265b81461010e5780632c388d5d1461012557806336cee48414610176575b6100a461025a565b005b3480156100b257600080fd5b506100e1600480360360208110156100c957600080fd5b8101908080351515906020019092919050505061025c565b005b3480156100ef57600080fd5b506100f86103e4565b6040518082815260200191505060405180910390f35b34801561011a57600080fd5b50610123610450565b005b34801561013157600080fd5b506101746004803603602081101561014857600080fd5b81019080803573ffffffffffffffffffffffffffffffffffffffff169060200190929190505050610452565b005b34801561018257600080fd5b5061018b6105d3565b005b34801561019957600080fd5b506101dc600480360360208110156101b057600080fd5b81019080803573ffffffffffffffffffffffffffffffffffffffff1690602001909291905050506105d5565b604051808215151515815260200191505060405180910390f35b34801561020257600080fd5b5061020b6105f5565b005b6102156105f7565b005b61021f6106cc565b005b61022961025a565b005b34801561023757600080fd5b506102406106ce565b604051808215151515815260200191505060405180910390f35b565b6000809054906101000a900473ffffffffffffffffffffffffffffffffffffffff1673ffffffffffffffffffffffffffffffffffffffff163373ffffffffffffffffffffffffffffffffffffffff161461031e576040517f08c379a000000000000000000000000000000000000000000000000000000000815260040180806020018281038252601c8152602001807f43616c6c6572206973206e6f7420636f6e7472616374206f776e65720000000081525060200191505060405180910390fd5b80600060149054906101000a900460ff161515811515141561038b576040517f08c379a00000000000000000000000000000000000000000000000000000000081526004018080602001828103825260278152602001806106e56027913960400191505060405180910390fd5b81600060146101000a81548160ff0219169083151502179055507f896889b60cdc10f9b7ae3d3e485f3a919a7bb14a6a32645578f583abfa4c66d982604051808215151515815260200191505060405180910390a15050565b60008060149054906101000a900460ff1661044a576040517f08c379a000000000000000000000000000000000000000000000000000000000815260040180806020018281038252602581526020018061070c6025913960400191505060405180910390fd5b47905090565b565b6000809054906101000a900473ffffffffffffffffffffffffffffffffffffffff1673ffffffffffffffffffffffffffffffffffffffff163373ffffffffffffffffffffffffffffffffffffffff1614610514576040517f08c379a000000000000000000000000000000000000000000000000000000000815260040180806020018281038252601c8152602001807f43616c6c6572206973206e6f7420636f6e7472616374206f776e65720000000081525060200191505060405180910390fd5b600060149054906101000a900460ff16610579576040517f08c379a000000000000000000000000000000000000000000000000000000000815260040180806020018281038252602581526020018061070c6025913960400191505060405180910390fd5b60018060008373ffffffffffffffffffffffffffffffffffffffff1673ffffffffffffffffffffffffffffffffffffffff16815260200190815260200160002060006101000a81548160ff02191690831515021790555050565b565b60016020528060005260406000206000915054906101000a900460ff1681565b565b600060149054906101000a900460ff1661065c576040517f08c379a000000000000000000000000000000000000000000000000000000000815260040180806020018281038252602581526020018061070c6025913960400191505060405180910390fd5b60008060009054906101000a900473ffffffffffffffffffffffffffffffffffffffff1690508073ffffffffffffffffffffffffffffffffffffffff166108fc349081150290604051600060405180830381858888f193505050501580156106c8573d6000803e3d6000fd5b5050565b565b60008060149054906101000a900460ff1690509056fe436f6e747261637420616c726561647920696e2074686520737461746520726571756573746564436f6e74726163742069732063757272656e746c79206e6f74206f7065726174696f6e616ca265627a7a7231582006d4e08e0463281b95614ea9fa4d02903888cd40f99e9c767af5dbbd2f419c6f64736f6c63430005110032",
  "source": "pragma solidity ^0.5.0;\n\nimport \"../node_modules/openzeppelin-solidity/contracts/math/SafeMath.sol\";\n\ncontract FlightSuretyData {\n    using SafeMath for uint256;\n\n    /********************************************************************************************/\n    /*                                       DATA VARIABLES                                     */\n    /********************************************************************************************/\n\n    address private contractOwner;                                      // Account used to deploy contract\n    bool private operational = true;                                    // Blocks all state changes throughout the contract if false\n    mapping(address => bool) public authorizedCallers;\n\n    /********************************************************************************************/\n    /*                                       EVENT DEFINITIONS                                  */\n    /********************************************************************************************/\n\n\n    /**\n    * @dev Constructor\n    *      The deploying account becomes contractOwner\n    */\n    constructor() public payable {\n        contractOwner = msg.sender;\n    }\n\n    /********************************************************************************************/\n    /*                                       EVENTS                                             */\n    /********************************************************************************************/\n\n    event OperationalStatusChanged(bool mode);\n\n    /********************************************************************************************/\n    /*                                       FUNCTION MODIFIERS                                 */\n    /********************************************************************************************/\n\n    // Modifiers help avoid duplication of code. They are typically used to validate something\n    // before a function is allowed to be executed.\n\n    /**\n    * @dev Modifier that requires the \"operational\" boolean variable to be \"true\"\n    *      This is used on all state changing functions to pause the contract in \n    *      the event there is an issue that needs to be fixed\n    */\n    modifier requireIsOperational()\n    {\n        require(operational, \"Contract is currently not operational\");\n        _;  // All modifiers require an \"_\" which indicates where the function body will be added\n    }\n\n    modifier differentModeRequest(bool status)\n    {\n        require(status != operational, \"Contract already in the state requested\");\n        _;\n    }\n\n    /**\n    * @dev Modifier that requires the \"ContractOwner\" account to be the function caller\n    */\n    modifier requireContractOwner()\n    {\n        require(msg.sender == contractOwner, \"Caller is not contract owner\");\n        _;\n    }\n\n    /********************************************************************************************/\n    /*                                       UTILITY FUNCTIONS                                  */\n    /********************************************************************************************/\n\n    /**\n    * @dev Get operating status of contract\n    *\n    * @return A bool that is the current operating status\n    */\n    function isOperational() public view returns(bool){\n        return operational;\n    }\n\n    /**\n    * @dev Sets contract operations on/off\n    *\n    * When operational mode is disabled, all write transactions except for this one will fail\n    */\n    function setOperatingStatus(bool mode) external requireContractOwner differentModeRequest(mode) {\n        operational = mode;\n        emit OperationalStatusChanged(mode);\n    }\n\n    function authorizeCaller(address callerAddress)\n    external\n    requireContractOwner\n    requireIsOperational\n    {\n        authorizedCallers[callerAddress] = true;\n    }\n\n    /********************************************************************************************/\n    /*                                     SMART CONTRACT FUNCTIONS                             */\n    /********************************************************************************************/\n\n    /**\n     * @dev Add an airline to the registration queue\n    *      Can only be called from FlightSuretyApp contract\n    *\n    */\n    function registerAirline\n    (\n    )\n    external\n    pure\n    {\n    }\n\n\n    /**\n     * @dev Buy insurance for a flight\n    *\n    */\n    function buy\n    (\n    )\n    external\n    payable\n    {\n\n    }\n\n    /**\n     *  @dev Credits payouts to insurees\n    */\n    function creditInsurees\n    (\n    )\n    external\n    pure\n    {\n    }\n\n    /**\n    * @dev pay for registering Airline\n    *\n    */\n    function fundAirline() external payable requireIsOperational {\n        address payable dataContract = address(uint160(address(contractOwner)));\n        dataContract.transfer(msg.value);\n    }\n\n    /**\n    * @dev getting balance of funds held in this contract address\n    *\n    */\n    function getBalance() public view requireIsOperational returns (uint256) {\n        return address(this).balance;\n    }\n\n\n    /**\n     *  @dev Transfers eligible payout funds to insuree\n     *\n    */\n    function pay\n    (\n    )\n    external\n    pure\n    {\n    }\n\n    /**\n     * @dev Initial funding for the insurance. Unless there are too many delayed flights\n    *      resulting in insurance payouts, the contract should be self-sustaining\n    *\n    */\n    function fund\n    (\n    )\n    public\n    payable\n    {\n    }\n\n    function getFlightKey\n    (\n        address airline,\n        string memory flight,\n        uint256 timestamp\n    )\n    pure\n    internal\n    returns(bytes32)\n    {\n        return keccak256(abi.encodePacked(airline, flight, timestamp));\n    }\n\n    /**\n    * @dev Fallback function for funding smart contract.\n    *\n    */\n    function()\n    external\n    payable\n    {\n        fund();\n    }\n\n\n}",
  "sourcePath": "/Users/hdominguez/Documents/blockchain_nanodegree/FlightSuretyDapp/contracts/FlightSuretyData.sol",
  "compiler": {
    "name": "solc",
    "version": "0.5.17+commit.d19bba13.Emscripten.clang"
  },
  "schemaVersion": "3.3.4",
  "updatedAt": "2022-01-22T20:32:49.548Z",
  "networkType": "ethereum",
  "devdoc": {
    "methods": {
      "buy()": {
        "details": "Buy insurance for a flight    "
      },
      "constructor": {
        "details": "Constructor     The deploying account becomes contractOwner"
      },
      "creditInsurees()": {
        "details": "Credits payouts to insurees"
      },
      "fund()": {
        "details": "Initial funding for the insurance. Unless there are too many delayed flights     resulting in insurance payouts, the contract should be self-sustaining    "
      },
      "fundAirline()": {
        "details": "pay for registering Airline    "
      },
      "getBalance()": {
        "details": "getting balance of funds held in this contract address    "
      },
      "isOperational()": {
        "details": "Get operating status of contract",
        "return": "A bool that is the current operating status"
      },
      "pay()": {
        "details": "Transfers eligible payout funds to insuree    "
      },
      "registerAirline()": {
        "details": "Add an airline to the registration queue     Can only be called from FlightSuretyApp contract    "
      },
      "setOperatingStatus(bool)": {
        "details": "Sets contract operations on/off    * When operational mode is disabled, all write transactions except for this one will fail"
      }
    }
  },
  "userdoc": {
    "methods": {}
  }
}