{
  "contractName": "FlightSuretyData",
  "abi": [
    {
      "inputs": [
        {
          "internalType": "address",
          "name": "_airline",
          "type": "address"
        }
      ],
      "payable": true,
      "stateMutability": "payable",
      "type": "constructor"
    },
    {
      "anonymous": false,
      "inputs": [
        {
          "indexed": false,
          "internalType": "bool",
          "name": "mode",
          "type": "bool"
        }
      ],
      "name": "OperationalStatusChanged",
      "type": "event"
    },
    {
      "anonymous": false,
      "inputs": [
        {
          "indexed": false,
          "internalType": "address",
          "name": "airline",
          "type": "address"
        },
        {
          "indexed": false,
          "internalType": "uint256",
          "name": "value",
          "type": "uint256"
        },
        {
          "indexed": false,
          "internalType": "bool",
          "name": "isFunded",
          "type": "bool"
        }
      ],
      "name": "fundedAirline",
      "type": "event"
    },
    {
      "anonymous": false,
      "inputs": [
        {
          "indexed": false,
          "internalType": "address",
          "name": "airline",
          "type": "address"
        },
        {
          "indexed": false,
          "internalType": "address",
          "name": "sender",
          "type": "address"
        },
        {
          "indexed": false,
          "internalType": "bool",
          "name": "isApproved",
          "type": "bool"
        }
      ],
      "name": "registeredAirline",
      "type": "event"
    },
    {
      "anonymous": false,
      "inputs": [
        {
          "indexed": false,
          "internalType": "address",
          "name": "airline",
          "type": "address"
        },
        {
          "indexed": false,
          "internalType": "bool",
          "name": "isApproved",
          "type": "bool"
        },
        {
          "indexed": false,
          "internalType": "bool",
          "name": "isFunded",
          "type": "bool"
        },
        {
          "indexed": false,
          "internalType": "uint256",
          "name": "regIndex",
          "type": "uint256"
        },
        {
          "indexed": false,
          "internalType": "uint256",
          "name": "votes",
          "type": "uint256"
        }
      ],
      "name": "submittedAirline",
      "type": "event"
    },
    {
      "anonymous": false,
      "inputs": [
        {
          "indexed": false,
          "internalType": "address",
          "name": "airline",
          "type": "address"
        },
        {
          "indexed": false,
          "internalType": "address",
          "name": "sender",
          "type": "address"
        }
      ],
      "name": "votedAirline",
      "type": "event"
    },
    {
      "payable": true,
      "stateMutability": "payable",
      "type": "fallback"
    },
    {
      "constant": true,
      "inputs": [
        {
          "internalType": "address",
          "name": "",
          "type": "address"
        }
      ],
      "name": "authorizedCallers",
      "outputs": [
        {
          "internalType": "bool",
          "name": "",
          "type": "bool"
        }
      ],
      "payable": false,
      "stateMutability": "view",
      "type": "function"
    },
    {
      "constant": true,
      "inputs": [],
      "name": "isOperational",
      "outputs": [
        {
          "internalType": "bool",
          "name": "",
          "type": "bool"
        }
      ],
      "payable": false,
      "stateMutability": "view",
      "type": "function"
    },
    {
      "constant": false,
      "inputs": [
        {
          "internalType": "bool",
          "name": "mode",
          "type": "bool"
        }
      ],
      "name": "setOperatingStatus",
      "outputs": [],
      "payable": false,
      "stateMutability": "nonpayable",
      "type": "function"
    },
    {
      "constant": false,
      "inputs": [
        {
          "internalType": "address",
          "name": "callerAddress",
          "type": "address"
        }
      ],
      "name": "authorizeCaller",
      "outputs": [],
      "payable": false,
      "stateMutability": "nonpayable",
      "type": "function"
    },
    {
      "constant": true,
      "inputs": [],
      "name": "getBalance",
      "outputs": [
        {
          "internalType": "uint256",
          "name": "",
          "type": "uint256"
        }
      ],
      "payable": false,
      "stateMutability": "view",
      "type": "function"
    },
    {
      "constant": false,
      "inputs": [
        {
          "internalType": "address",
          "name": "_airline",
          "type": "address"
        }
      ],
      "name": "submitAirline",
      "outputs": [],
      "payable": true,
      "stateMutability": "payable",
      "type": "function"
    },
    {
      "constant": false,
      "inputs": [
        {
          "internalType": "address",
          "name": "_airline",
          "type": "address"
        }
      ],
      "name": "voteAirline",
      "outputs": [],
      "payable": false,
      "stateMutability": "nonpayable",
      "type": "function"
    },
    {
      "constant": false,
      "inputs": [
        {
          "internalType": "address",
          "name": "_airline",
          "type": "address"
        }
      ],
      "name": "registerAirline",
      "outputs": [],
      "payable": false,
      "stateMutability": "nonpayable",
      "type": "function"
    },
    {
      "constant": false,
      "inputs": [
        {
          "internalType": "address payable",
          "name": "_airline",
          "type": "address"
        }
      ],
      "name": "fundAirline",
      "outputs": [],
      "payable": true,
      "stateMutability": "payable",
      "type": "function"
    },
    {
      "constant": true,
      "inputs": [
        {
          "internalType": "address",
          "name": "_airline",
          "type": "address"
        }
      ],
      "name": "getAirlineStatus",
      "outputs": [
        {
          "internalType": "address",
          "name": "",
          "type": "address"
        },
        {
          "internalType": "bool",
          "name": "",
          "type": "bool"
        },
        {
          "internalType": "bool",
          "name": "",
          "type": "bool"
        },
        {
          "internalType": "uint256",
          "name": "",
          "type": "uint256"
        },
        {
          "internalType": "uint256",
          "name": "",
          "type": "uint256"
        }
      ],
      "payable": false,
      "stateMutability": "view",
      "type": "function"
    },
    {
      "constant": true,
      "inputs": [],
      "name": "getAirlines",
      "outputs": [
        {
          "internalType": "address[]",
          "name": "",
          "type": "address[]"
        }
      ],
      "payable": false,
      "stateMutability": "view",
      "type": "function"
    },
    {
      "constant": false,
      "inputs": [],
      "name": "buyInsurance",
      "outputs": [],
      "payable": true,
      "stateMutability": "payable",
      "type": "function"
    },
    {
      "constant": true,
      "inputs": [],
      "name": "pay",
      "outputs": [],
      "payable": false,
      "stateMutability": "pure",
      "type": "function"
    },
    {
      "constant": false,
      "inputs": [],
      "name": "fund",
      "outputs": [],
      "payable": true,
      "stateMutability": "payable",
      "type": "function"
    }
  ],
  "bytecode": "0x60806040526001600060146101000a81548160ff02191690831515021790555060006004556040516113793803806113798339818101604052602081101561004657600080fd5b8101908080519060200190929190505050336000806101000a81548173ffffffffffffffffffffffffffffffffffffffff021916908373ffffffffffffffffffffffffffffffffffffffff1602179055506040518060a001604052808273ffffffffffffffffffffffffffffffffffffffff168152602001600015158152602001600015158152602001600081526020016000815250600260008373ffffffffffffffffffffffffffffffffffffffff1673ffffffffffffffffffffffffffffffffffffffff16815260200190815260200160002060008201518160000160006101000a81548173ffffffffffffffffffffffffffffffffffffffff021916908373ffffffffffffffffffffffffffffffffffffffff16021790555060208201518160000160146101000a81548160ff02191690831515021790555060408201518160000160156101000a81548160ff0219169083151502179055506060820151816001015560808201518160020155905050600060048190555060038190806001815401808255809150509060018203906000526020600020016000909192909190916101000a81548173ffffffffffffffffffffffffffffffffffffffff021916908373ffffffffffffffffffffffffffffffffffffffff1602179055505050611142806102376000396000f3fe6080604052600436106100dd5760003560e01c80636fbb87981161007f578063b60d428811610059578063b60d4288146103d3578063bdfd9877146103dd578063cd905dff1461042e578063d8ab5b891461045d576100dd565b80636fbb87981461034157806371618c7914610385578063886fb6c71461038f576100dd565b80631b9265b8116100bb5780631b9265b8146101bb5780632c388d5d146101d2578063536fff6c1461022357806357721fee1461028c576100dd565b80630d5dc054146100e7578063110466ed1461015357806312065fe014610190575b6100e56104ae565b005b3480156100f357600080fd5b506100fc6104b0565b6040518080602001828103825283818151815260200191508051906020019060200280838360005b8381101561013f578082015181840152602081019050610124565b505050509050019250505060405180910390f35b34801561015f57600080fd5b5061018e6004803603602081101561017657600080fd5b810190808035151590602001909291905050506105f2565b005b34801561019c57600080fd5b506101a561077a565b6040518082815260200191505060405180910390f35b3480156101c757600080fd5b506101d06107e6565b005b3480156101de57600080fd5b50610221600480360360208110156101f557600080fd5b81019080803573ffffffffffffffffffffffffffffffffffffffff1690602001909291905050506107e8565b005b34801561022f57600080fd5b506102726004803603602081101561024657600080fd5b81019080803573ffffffffffffffffffffffffffffffffffffffff169060200190929190505050610969565b604051808215151515815260200191505060405180910390f35b34801561029857600080fd5b506102db600480360360208110156102af57600080fd5b81019080803573ffffffffffffffffffffffffffffffffffffffff169060200190929190505050610989565b604051808673ffffffffffffffffffffffffffffffffffffffff1673ffffffffffffffffffffffffffffffffffffffff16815260200185151515158152602001841515151581526020018381526020018281526020019550505050505060405180910390f35b6103836004803603602081101561035757600080fd5b81019080803573ffffffffffffffffffffffffffffffffffffffff169060200190929190505050610b2d565b005b61038d610bf0565b005b6103d1600480360360208110156103a557600080fd5b81019080803573ffffffffffffffffffffffffffffffffffffffff169060200190929190505050610bf2565b005b6103db6104ae565b005b3480156103e957600080fd5b5061042c6004803603602081101561040057600080fd5b81019080803573ffffffffffffffffffffffffffffffffffffffff169060200190929190505050610e26565b005b34801561043a57600080fd5b50610443610f28565b604051808215151515815260200191505060405180910390f35b34801561046957600080fd5b506104ac6004803603602081101561048057600080fd5b81019080803573ffffffffffffffffffffffffffffffffffffffff169060200190929190505050610f3e565b005b565b6060806003805490506040519080825280602002602001820160405280156104e75781602001602082028038833980820191505090505b50905060008090505b6003805490508110156105ea57600260006003838154811061050e57fe5b9060005260206000200160009054906101000a900473ffffffffffffffffffffffffffffffffffffffff1673ffffffffffffffffffffffffffffffffffffffff1673ffffffffffffffffffffffffffffffffffffffff16815260200190815260200160002060000160009054906101000a900473ffffffffffffffffffffffffffffffffffffffff168282815181106105a357fe5b602002602001019073ffffffffffffffffffffffffffffffffffffffff16908173ffffffffffffffffffffffffffffffffffffffff168152505080806001019150506104f0565b508091505090565b6000809054906101000a900473ffffffffffffffffffffffffffffffffffffffff1673ffffffffffffffffffffffffffffffffffffffff163373ffffffffffffffffffffffffffffffffffffffff16146106b4576040517f08c379a000000000000000000000000000000000000000000000000000000000815260040180806020018281038252601c8152602001807f43616c6c6572206973206e6f7420636f6e7472616374206f776e65720000000081525060200191505060405180910390fd5b80600060149054906101000a900460ff1615158115151415610721576040517f08c379a00000000000000000000000000000000000000000000000000000000081526004018080602001828103825260278152602001806110c26027913960400191505060405180910390fd5b81600060146101000a81548160ff0219169083151502179055507f896889b60cdc10f9b7ae3d3e485f3a919a7bb14a6a32645578f583abfa4c66d982604051808215151515815260200191505060405180910390a15050565b60008060149054906101000a900460ff166107e0576040517f08c379a00000000000000000000000000000000000000000000000000000000081526004018080602001828103825260258152602001806110e96025913960400191505060405180910390fd5b47905090565b565b6000809054906101000a900473ffffffffffffffffffffffffffffffffffffffff1673ffffffffffffffffffffffffffffffffffffffff163373ffffffffffffffffffffffffffffffffffffffff16146108aa576040517f08c379a000000000000000000000000000000000000000000000000000000000815260040180806020018281038252601c8152602001807f43616c6c6572206973206e6f7420636f6e7472616374206f776e65720000000081525060200191505060405180910390fd5b600060149054906101000a900460ff1661090f576040517f08c379a00000000000000000000000000000000000000000000000000000000081526004018080602001828103825260258152602001806110e96025913960400191505060405180910390fd5b60018060008373ffffffffffffffffffffffffffffffffffffffff1673ffffffffffffffffffffffffffffffffffffffff16815260200190815260200160002060006101000a81548160ff02191690831515021790555050565b60016020528060005260406000206000915054906101000a900460ff1681565b6000806000806000600260008773ffffffffffffffffffffffffffffffffffffffff1673ffffffffffffffffffffffffffffffffffffffff16815260200190815260200160002060000160009054906101000a900473ffffffffffffffffffffffffffffffffffffffff16600260008873ffffffffffffffffffffffffffffffffffffffff1673ffffffffffffffffffffffffffffffffffffffff16815260200190815260200160002060000160149054906101000a900460ff16600260008973ffffffffffffffffffffffffffffffffffffffff1673ffffffffffffffffffffffffffffffffffffffff16815260200190815260200160002060000160159054906101000a900460ff16600260008a73ffffffffffffffffffffffffffffffffffffffff1673ffffffffffffffffffffffffffffffffffffffff16815260200190815260200160002060010154600260008b73ffffffffffffffffffffffffffffffffffffffff1673ffffffffffffffffffffffffffffffffffffffff168152602001908152602001600020600201549450945094509450945091939590929450565b600060149054906101000a900460ff16610b92576040517f08c379a00000000000000000000000000000000000000000000000000000000081526004018080602001828103825260258152602001806110e96025913960400191505060405180910390fd5b6001600260008373ffffffffffffffffffffffffffffffffffffffff1673ffffffffffffffffffffffffffffffffffffffff16815260200190815260200160002060000160156101000a81548160ff02191690831515021790555050565b565b6000600460008154809291906001019190505590506040518060a001604052808373ffffffffffffffffffffffffffffffffffffffff1681526020016000151581526020016000151581526020018281526020016000815250600260008473ffffffffffffffffffffffffffffffffffffffff1673ffffffffffffffffffffffffffffffffffffffff16815260200190815260200160002060008201518160000160006101000a81548173ffffffffffffffffffffffffffffffffffffffff021916908373ffffffffffffffffffffffffffffffffffffffff16021790555060208201518160000160146101000a81548160ff02191690831515021790555060408201518160000160156101000a81548160ff02191690831515021790555060608201518160010155608082015181600201559050508060048190555060038290806001815401808255809150509060018203906000526020600020016000909192909190916101000a81548173ffffffffffffffffffffffffffffffffffffffff021916908373ffffffffffffffffffffffffffffffffffffffff160217905550507fe584b81ed38de322f019357a1f4d270cc3f9a4ba2e3f4c45a01441f4b898ed4b82600080846000604051808673ffffffffffffffffffffffffffffffffffffffff1673ffffffffffffffffffffffffffffffffffffffff16815260200185151515158152602001841515151581526020018381526020018281526020019550505050505060405180910390a15050565b6001600260008373ffffffffffffffffffffffffffffffffffffffff1673ffffffffffffffffffffffffffffffffffffffff16815260200190815260200160002060000160146101000a81548160ff0219169083151502179055507f46e6180de28db27b5d2eb406845e6c690156d27e59144c6a16867ca53cad424381336001604051808473ffffffffffffffffffffffffffffffffffffffff1673ffffffffffffffffffffffffffffffffffffffff1681526020018373ffffffffffffffffffffffffffffffffffffffff1673ffffffffffffffffffffffffffffffffffffffff16815260200182151515158152602001935050505060405180910390a150565b60008060149054906101000a900460ff16905090565b6001600260008373ffffffffffffffffffffffffffffffffffffffff1673ffffffffffffffffffffffffffffffffffffffff168152602001908152602001600020600201600082825401925050819055506001600260008373ffffffffffffffffffffffffffffffffffffffff1673ffffffffffffffffffffffffffffffffffffffff16815260200190815260200160002060030160003373ffffffffffffffffffffffffffffffffffffffff1673ffffffffffffffffffffffffffffffffffffffff16815260200190815260200160002060006101000a81548160ff0219169083151502179055507ff3df2edfdb8d09bac102a96e47ec84205e606baa9ccb31f487b843a20bccb3f08133604051808373ffffffffffffffffffffffffffffffffffffffff1673ffffffffffffffffffffffffffffffffffffffff1681526020018273ffffffffffffffffffffffffffffffffffffffff1673ffffffffffffffffffffffffffffffffffffffff1681526020019250505060405180910390a15056fe436f6e747261637420616c726561647920696e2074686520737461746520726571756573746564436f6e74726163742069732063757272656e746c79206e6f74206f7065726174696f6e616ca265627a7a72315820f709af599859345d5ceed1ea8384ae1a6cf9740ca5aaf29e3aa28cc4daaeae8764736f6c63430005110032",
  "source": "pragma solidity ^0.5.0;\n\nimport \"../node_modules/openzeppelin-solidity/contracts/math/SafeMath.sol\";\n\ncontract FlightSuretyData {\n    using SafeMath for uint256;\n\n    /********************************************************************************************/\n    /*                                       DATA VARIABLES                                     */\n    /********************************************************************************************/\n\n    address private contractOwner;                                      // Account used to deploy contract\n    bool private operational = true;                                    // Blocks all state changes throughout the contract if false\n    mapping(address => bool) public authorizedCallers;\n\n    struct Airline {\n        address airline;\n        bool isApproved;\n        bool isFunded;\n        uint256 regIndex;\n        uint256 votes;\n        mapping(address => bool) votedFor;\n    }\n    mapping(address => Airline) private airlines;\n    address[] private addressesAirlines;\n    uint256 regIndexAirline = 0;\n\n    /********************************************************************************************/\n    /*                                       EVENT DEFINITIONS                                  */\n    /********************************************************************************************/\n\n\n    /**\n    * @dev Constructor\n    *      The deploying account becomes contractOwner\n    */\n    constructor(address _airline) public payable {\n        contractOwner = msg.sender;\n        airlines[_airline] = Airline(_airline, false, false, 0, 0);\n        regIndexAirline = 0;\n        addressesAirlines.push(_airline);\n    }\n\n    /********************************************************************************************/\n    /*                                       EVENTS                                             */\n    /********************************************************************************************/\n\n    event OperationalStatusChanged(bool mode);\n    event submittedAirline(address airline, bool isApproved, bool isFunded, uint256 regIndex, uint256 votes);\n    event votedAirline(address airline, address sender);\n    event registeredAirline(address airline, address sender, bool isApproved);\n    event fundedAirline(address airline, uint value, bool isFunded);\n\n    /********************************************************************************************/\n    /*                                       FUNCTION MODIFIERS                                 */\n    /********************************************************************************************/\n\n    // Modifiers help avoid duplication of code. They are typically used to validate something\n    // before a function is allowed to be executed.\n\n    /**\n    * @dev Modifier that requires the \"operational\" boolean variable to be \"true\"\n    *      This is used on all state changing functions to pause the contract in \n    *      the event there is an issue that needs to be fixed\n    */\n    modifier requireIsOperational()\n    {\n        require(operational, \"Contract is currently not operational\");\n        _;  // All modifiers require an \"_\" which indicates where the function body will be added\n    }\n\n    modifier differentModeRequest(bool status)\n    {\n        require(status != operational, \"Contract already in the state requested\");\n        _;\n    }\n\n    /**\n    * @dev Modifier that requires the \"ContractOwner\" account to be the function caller\n    */\n    modifier requireContractOwner()\n    {\n        require(msg.sender == contractOwner, \"Caller is not contract owner\");\n        _;\n    }\n\n    /********************************************************************************************/\n    /*                                       UTILITY FUNCTIONS                                  */\n    /********************************************************************************************/\n\n    /** @dev Get operating status of contract\n    *** @return A bool that is the current operating status*/\n    function isOperational() public view returns(bool){\n        return operational;\n    }\n\n    /**\n    * @dev Sets contract operations on/off\n    *\n    * When operational mode is disabled, all write transactions except for this one will fail\n    */\n    function setOperatingStatus(bool mode) external requireContractOwner differentModeRequest(mode) {\n        operational = mode;\n        emit OperationalStatusChanged(mode);\n    }\n\n    function authorizeCaller(address callerAddress) external requireContractOwner requireIsOperational {\n        authorizedCallers[callerAddress] = true;\n    }\n\n    /** @dev getting balance of funds held in this contract address**/\n    function getBalance() public view requireIsOperational returns (uint256) {\n        return address(this).balance;\n    }\n\n    /********************************************************************************************/\n    /*                                     SMART CONTRACT FUNCTIONS                             */\n    /********************************************************************************************/\n\n\n    /**\n * @dev Add an airline to the submit queue\n    *\n    */\n    function submitAirline(address _airline) external payable {\n        uint256 regIndex = regIndexAirline++;\n\n        airlines[_airline] = Airline({\n            airline: _airline,\n            isApproved: false,\n            isFunded: false,\n            regIndex: regIndex,\n            votes: 0\n        });\n\n        regIndexAirline = regIndex;\n        addressesAirlines.push(_airline);\n\n        emit submittedAirline(_airline, false, false, regIndex, 0);\n    }\n\n    /**\n    * @dev Vote an airline\n    *\n    */\n    function voteAirline(address _airline) external {\n        airlines[_airline].votes += 1;\n        airlines[_airline].votedFor[msg.sender] = true;\n\n        emit votedAirline(_airline, msg.sender);\n    }\n\n\n    /** @dev Add an airline to the registration queue Can only be called from FlightSuretyApp contract**/\n    function registerAirline(address _airline) external {\n        airlines[_airline].isApproved = true;\n        emit registeredAirline(_airline, msg.sender, true);\n    }\n\n\n    /**\n    * @dev pay for registering Airline\n    *\n    */\n    function fundAirline(address payable _airline) external payable requireIsOperational {\n        airlines[_airline].isFunded = true;\n    }\n\n\n    /** @dev Get airline status**/\n    function getAirlineStatus(address _airline) external view returns(address, bool, bool, uint256, uint256) {\n        return (\n            airlines[_airline].airline,\n            airlines[_airline].isApproved,\n            airlines[_airline].isFunded,\n            airlines[_airline].regIndex,\n            airlines[_airline].votes\n        );\n    }\n\n\n    function getAirlines() external view returns(address[] memory) {\n        address[] memory arrAddressesAirlines = new address[](addressesAirlines.length);\n        for (uint i = 0; i < addressesAirlines.length; i++){\n            arrAddressesAirlines[i] = airlines[addressesAirlines[i]].airline;\n        }\n        return (arrAddressesAirlines);\n    }\n\n    /** @dev Buy insurance for a flight**/\n    function buyInsurance\n    (\n    )\n    external\n    payable\n    {\n\n    }\n\n\n//    /**  @dev Credits payouts to insurees**/\n//    function creditInsurees() {\n//    (\n//    )\n//    external\n//    pure\n//    {\n//    }\n\n\n    /**  @dev Transfers eligible payout funds to insuree**/\n    function pay\n    (\n    )\n    external\n    pure\n    {\n    }\n\n\n    /** @dev Initial funding for the insurance. Unless there are too many delayed flights*      resulting in insurance payouts, the contract should be self-sustaining*\n    */\n    function fund\n    (\n    )\n    public\n    payable\n    {\n    }\n\n    function getFlightKey\n    (\n        address airline,\n        string memory flight,\n        uint256 timestamp\n    )\n    pure\n    internal\n    returns(bytes32)\n    {\n        return keccak256(abi.encodePacked(airline, flight, timestamp));\n    }\n\n\n    /** @dev Fallback function for funding smart contract.**/\n    function()\n    external\n    payable\n    {\n        fund();\n    }\n\n\n}",
  "sourcePath": "/Users/hdominguez/Documents/blockchain_nanodegree/FlightSuretyDapp/contracts/FlightSuretyData.sol",
  "compiler": {
    "name": "solc",
    "version": "0.5.17+commit.d19bba13.Emscripten.clang"
  },
  "schemaVersion": "3.3.4",
  "updatedAt": "2022-01-23T15:17:08.132Z",
  "networkType": "ethereum",
  "devdoc": {
    "methods": {
      "buyInsurance()": {
        "details": "Buy insurance for a flight*"
      },
      "constructor": {
        "details": "Constructor     The deploying account becomes contractOwner"
      },
      "fund()": {
        "details": "Initial funding for the insurance. Unless there are too many delayed flights*      resulting in insurance payouts, the contract should be self-sustaining*"
      },
      "fundAirline(address)": {
        "details": "pay for registering Airline    "
      },
      "getAirlineStatus(address)": {
        "details": "Get airline status*"
      },
      "getBalance()": {
        "details": "getting balance of funds held in this contract address*"
      },
      "isOperational()": {
        "details": "Get operating status of contract*** @return A bool that is the current operating status"
      },
      "pay()": {
        "details": "Transfers eligible payout funds to insuree*"
      },
      "registerAirline(address)": {
        "details": "Add an airline to the registration queue Can only be called from FlightSuretyApp contract*"
      },
      "setOperatingStatus(bool)": {
        "details": "Sets contract operations on/off    * When operational mode is disabled, all write transactions except for this one will fail"
      },
      "submitAirline(address)": {
        "details": "Add an airline to the submit queue    "
      },
      "voteAirline(address)": {
        "details": "Vote an airline    "
      }
    }
  },
  "userdoc": {
    "methods": {}
  }
}